{
  "contractName": "Array",
  "abi": [
    {
      "inputs": [
        {
          "internalType": "uint256",
          "name": "",
          "type": "uint256"
        }
      ],
      "name": "arr",
      "outputs": [
        {
          "internalType": "uint256",
          "name": "",
          "type": "uint256"
        }
      ],
      "stateMutability": "view",
      "type": "function",
      "constant": true
    },
    {
      "inputs": [
        {
          "internalType": "uint256",
          "name": "",
          "type": "uint256"
        }
      ],
      "name": "arr2",
      "outputs": [
        {
          "internalType": "uint256",
          "name": "",
          "type": "uint256"
        }
      ],
      "stateMutability": "view",
      "type": "function",
      "constant": true
    },
    {
      "inputs": [
        {
          "internalType": "uint256",
          "name": "",
          "type": "uint256"
        }
      ],
      "name": "myFixedSizeAttr",
      "outputs": [
        {
          "internalType": "uint256",
          "name": "",
          "type": "uint256"
        }
      ],
      "stateMutability": "view",
      "type": "function",
      "constant": true
    },
    {
      "inputs": [
        {
          "internalType": "uint256",
          "name": "i",
          "type": "uint256"
        }
      ],
      "name": "get",
      "outputs": [
        {
          "internalType": "uint256",
          "name": "",
          "type": "uint256"
        }
      ],
      "stateMutability": "view",
      "type": "function",
      "constant": true
    },
    {
      "inputs": [],
      "name": "getAttr",
      "outputs": [
        {
          "internalType": "uint256[]",
          "name": "",
          "type": "uint256[]"
        }
      ],
      "stateMutability": "view",
      "type": "function",
      "constant": true
    },
    {
      "inputs": [
        {
          "internalType": "uint256",
          "name": "i",
          "type": "uint256"
        }
      ],
      "name": "push",
      "outputs": [],
      "stateMutability": "nonpayable",
      "type": "function"
    },
    {
      "inputs": [],
      "name": "pop",
      "outputs": [],
      "stateMutability": "nonpayable",
      "type": "function"
    },
    {
      "inputs": [],
      "name": "getLength",
      "outputs": [
        {
          "internalType": "uint256",
          "name": "",
          "type": "uint256"
        }
      ],
      "stateMutability": "view",
      "type": "function",
      "constant": true
    },
    {
      "inputs": [
        {
          "internalType": "uint256",
          "name": "index",
          "type": "uint256"
        }
      ],
      "name": "remove",
      "outputs": [],
      "stateMutability": "nonpayable",
      "type": "function"
    },
    {
      "inputs": [],
      "name": "examples",
      "outputs": [],
      "stateMutability": "nonpayable",
      "type": "function"
    }
  ],
  "bytecode": "0x60806040526040518060600160405280600160ff168152602001600260ff168152602001600360ff16815250600190600361003b92919061004e565b5034801561004857600080fd5b506100bd565b82805482825590600052602060002090810192821561008f579160200282015b8281111561008e578251829060ff1690559160200191906001019061006e565b5b50905061009c91906100a0565b5090565b5b808211156100b95760008160009055506001016100a1565b5090565b6105da806100cc6000396000f3fe608060405234801561001057600080fd5b506004361061009e5760003560e01c8063a4ece52c11610066578063a4ece52c14610145578063be1c766b1461014f578063d0f3eaae1461016d578063edf0099b1461019d578063f540c8ba146101cd5761009e565b8063335d00c2146100a35780634cc82215146100ad57806371e5ee5f146100c95780639507d39a146100f9578063959ac48414610129575b600080fd5b6100ab6101eb565b005b6100c760048036038101906100c291906103e0565b61023c565b005b6100e360048036038101906100de91906103e0565b610261565b6040516100f0919061041c565b60405180910390f35b610113600480360381019061010e91906103e0565b610285565b604051610120919061041c565b60405180910390f35b610143600480360381019061013e91906103e0565b6102ac565b005b61014d6102d8565b005b610157610302565b604051610164919061041c565b60405180910390f35b610187600480360381019061018291906103e0565b61030e565b604051610194919061041c565b60405180910390f35b6101b760048036038101906101b291906103e0565b610329565b6040516101c4919061041c565b60405180910390f35b6101d561034d565b6040516101e291906104f5565b60405180910390f35b6000600567ffffffffffffffff81111561020857610207610517565b5b6040519080825280602002602001820160405280156102365781602001602082028036833780820191505090505b50905050565b600081815481106102505761024f610546565b5b906000526020600020016000905550565b6000818154811061027157600080fd5b906000526020600020016000915090505481565b600080828154811061029a57610299610546565b5b90600052602060002001549050919050565b600081908060018154018082558091505060019003906000526020600020016000909190919091505550565b60008054806102ea576102e9610575565b5b60019003818190600052602060002001600090559055565b60008080549050905090565b600281600a811061031e57600080fd5b016000915090505481565b6001818154811061033957600080fd5b906000526020600020016000915090505481565b6060600080548060200260200160405190810160405280929190818152602001828054801561039b57602002820191906000526020600020905b815481526020019060010190808311610387575b5050505050905090565b600080fd5b6000819050919050565b6103bd816103aa565b81146103c857600080fd5b50565b6000813590506103da816103b4565b92915050565b6000602082840312156103f6576103f56103a5565b5b6000610404848285016103cb565b91505092915050565b610416816103aa565b82525050565b6000602082019050610431600083018461040d565b92915050565b600081519050919050565b600082825260208201905092915050565b6000819050602082019050919050565b61046c816103aa565b82525050565b600061047e8383610463565b60208301905092915050565b6000602082019050919050565b60006104a282610437565b6104ac8185610442565b93506104b783610453565b8060005b838110156104e85781516104cf8882610472565b97506104da8361048a565b9250506001810190506104bb565b5085935050505092915050565b6000602082019050818103600083015261050f8184610497565b905092915050565b7f4e487b7100000000000000000000000000000000000000000000000000000000600052604160045260246000fd5b7f4e487b7100000000000000000000000000000000000000000000000000000000600052603260045260246000fd5b7f4e487b7100000000000000000000000000000000000000000000000000000000600052603160045260246000fdfea2646970667358221220f1b7f1d42c15b8e5dcb6444b1cd94b80848f79cb0ac775fb54a134c326e57b7e64736f6c63430008100033",
  "immutableReferences": {},
  "source": "// SPDX-License-Identifier: MIT\npragma solidity ^0.8.0;\n\ncontract Array {\n    uint[] public arr;\n    uint[] public arr2 = [1, 2, 3];\n    uint[10] public myFixedSizeAttr;\n\n    function get(uint i) public view returns (uint) {\n        return arr[i];\n    }\n\n    function getAttr() public view returns (uint[] memory) {\n        return arr;\n    }\n\n    function push(uint i) public {\n        arr.push(i);\n    }\n\n    //decrease the array\n    function pop() public {\n        arr.pop();\n    }\n\n    function getLength() public view returns (uint) {\n        return arr.length;\n    }\n\n    //remove item\n    function remove(uint index) public {\n        delete arr[index];\n    }\n\n    function examples() external {\n        uint[] memory a = new uint[](5);\n    }\n}\n",
  "sourcePath": "/Users/lap02139/Documents/Work3/solidty/contracts/Array.sol",
  "compiler": {
    "name": "solc",
    "version": "0.8.16+commit.07a7930e.Emscripten.clang"
  },
  "schemaVersion": "3.4.10",
  "updatedAt": "2022-09-20T02:48:10.742Z",
  "networkType": "ethereum",
  "devdoc": {
    "kind": "dev",
    "methods": {},
    "version": 1
  },
  "userdoc": {
    "kind": "user",
    "methods": {},
    "version": 1
  }
}