{
  "contractName": "Caller",
  "abi": [
    {
      "inputs": [
        {
          "internalType": "address",
          "name": "addr",
          "type": "address"
        }
      ],
      "name": "someAction",
      "outputs": [
        {
          "internalType": "uint256",
          "name": "",
          "type": "uint256"
        }
      ],
      "stateMutability": "pure",
      "type": "function"
    },
    {
      "inputs": [
        {
          "internalType": "address",
          "name": "addr",
          "type": "address"
        }
      ],
      "name": "storeAction",
      "outputs": [
        {
          "internalType": "uint256",
          "name": "",
          "type": "uint256"
        }
      ],
      "stateMutability": "nonpayable",
      "type": "function"
    },
    {
      "inputs": [
        {
          "internalType": "address",
          "name": "addr",
          "type": "address"
        }
      ],
      "name": "someUnsafeAction",
      "outputs": [
        {
          "internalType": "bool",
          "name": "",
          "type": "bool"
        }
      ],
      "stateMutability": "nonpayable",
      "type": "function"
    }
  ],
  "bytecode": "0x608060405234801561001057600080fd5b506106d6806100206000396000f3fe608060405234801561001057600080fd5b50600436106100415760003560e01c8063748fa59914610046578063e8a6223514610076578063fba9cea9146100a6575b600080fd5b610060600480360381019061005b91906103f2565b6100d6565b60405161006d919061043a565b60405180910390f35b610090600480360381019061008b91906103f2565b61021b565b60405161009d919061046e565b60405180910390f35b6100c060048036038101906100bb91906103f2565b610306565b6040516100cd919061046e565b60405180910390f35b6000808273ffffffffffffffffffffffffffffffffffffffff16606460405160240161010291906104db565b6040516020818303038152906040527f7221a26a000000000000000000000000000000000000000000000000000000007bffffffffffffffffffffffffffffffffffffffffffffffffffffffff19166020820180517bffffffffffffffffffffffffffffffffffffffffffffffffffffffff838183161783525050505060405161018c9190610567565b6000604051808303816000865af19150503d80600081146101c9576040519150601f19603f3d011682016040523d82523d6000602084013e6101ce565b606091505b5050905080610212576040517f08c379a0000000000000000000000000000000000000000000000000000000008152600401610209906105db565b60405180910390fd5b80915050919050565b6000808290508073ffffffffffffffffffffffffffffffffffffffff16637221a26a60646040518263ffffffff1660e01b815260040161025b919061062c565b600060405180830381600087803b15801561027557600080fd5b505af1158015610289573d6000803e3d6000fd5b505050508073ffffffffffffffffffffffffffffffffffffffff166319eb4a906040518163ffffffff1660e01b81526004016020604051808303816000875af11580156102da573d6000803e3d6000fd5b505050506040513d601f19601f820116820180604052508101906102fe9190610673565b915050919050565b6000808290508073ffffffffffffffffffffffffffffffffffffffff16630ff4c91660646040518263ffffffff1660e01b8152600401610346919061062c565b602060405180830381865afa158015610363573d6000803e3d6000fd5b505050506040513d601f19601f820116820180604052508101906103879190610673565b915050919050565b600080fd5b600073ffffffffffffffffffffffffffffffffffffffff82169050919050565b60006103bf82610394565b9050919050565b6103cf816103b4565b81146103da57600080fd5b50565b6000813590506103ec816103c6565b92915050565b6000602082840312156104085761040761038f565b5b6000610416848285016103dd565b91505092915050565b60008115159050919050565b6104348161041f565b82525050565b600060208201905061044f600083018461042b565b92915050565b6000819050919050565b61046881610455565b82525050565b6000602082019050610483600083018461045f565b92915050565b6000819050919050565b600060ff82169050919050565b6000819050919050565b60006104c56104c06104bb84610489565b6104a0565b610493565b9050919050565b6104d5816104aa565b82525050565b60006020820190506104f060008301846104cc565b92915050565b600081519050919050565b600081905092915050565b60005b8381101561052a57808201518184015260208101905061050f565b60008484015250505050565b6000610541826104f6565b61054b8185610501565b935061055b81856020860161050c565b80840191505092915050565b60006105738284610536565b915081905092915050565b600082825260208201905092915050565b7f73746f726556616c7565206661696c65642e0000000000000000000000000000600082015250565b60006105c560128361057e565b91506105d08261058f565b602082019050919050565b600060208201905081810360008301526105f4816105b8565b9050919050565b600061061661061161060c84610489565b6104a0565b610455565b9050919050565b610626816105fb565b82525050565b6000602082019050610641600083018461061d565b92915050565b61065081610455565b811461065b57600080fd5b50565b60008151905061066d81610647565b92915050565b6000602082840312156106895761068861038f565b5b60006106978482850161065e565b9150509291505056fea2646970667358221220c3ba9cd197661a75cef9d4e345e5d8d8b482d4fa891b65b6381dc32cbba8755464736f6c63430008100033",
  "immutableReferences": {},
  "source": "// SPDX-License-Identifier: GPL-3.0\npragma solidity >=0.8.0 <0.9.0;\n\ncontract Caller {\n    function someAction(address addr) public pure returns (uint) {\n        CalleeAbs c = CalleeAbs(addr);\n        return c.getValue(100);\n    }\n\n    function storeAction(address addr) public returns (uint) {\n        CalleeAbs c = CalleeAbs(addr);\n        c.storeValue(100);\n        return c.getValues();\n    }\n\n    function someUnsafeAction(address addr) public returns (bool) {\n        //(bool success,) = addr.call(abi.encodeWithSelector(bytes4(keccak256(\"storeValue(uint256)\")), 100));\n        (bool success,) = addr.call(abi.encodeWithSignature(\"storeValue(uint256)\", 100));\n\n        require(success, \"storeValue failed.\");\n        return success;\n    }\n}\n\nabstract contract CalleeAbs {\n    function getValue(uint initialValue) public pure virtual returns (uint);\n    function getValues() public virtual returns (uint);\n    function storeValue(uint value) public virtual;\n}",
  "sourcePath": "/Users/lap02139/Documents/Work3/solidty/contracts/Caller.sol",
  "compiler": {
    "name": "solc",
    "version": "0.8.16+commit.07a7930e.Emscripten.clang"
  },
  "schemaVersion": "3.4.9",
  "updatedAt": "2022-09-20T01:38:23.518Z",
  "devdoc": {
    "kind": "dev",
    "methods": {},
    "version": 1
  },
  "userdoc": {
    "kind": "user",
    "methods": {},
    "version": 1
  }
}