{
  "contractName": "Callee",
  "abi": [
    {
      "inputs": [
        {
          "internalType": "uint256",
          "name": "",
          "type": "uint256"
        }
      ],
      "name": "values",
      "outputs": [
        {
          "internalType": "uint256",
          "name": "",
          "type": "uint256"
        }
      ],
      "stateMutability": "view",
      "type": "function"
    },
    {
      "inputs": [
        {
          "internalType": "uint256",
          "name": "initialValue",
          "type": "uint256"
        }
      ],
      "name": "getValue",
      "outputs": [
        {
          "internalType": "uint256",
          "name": "",
          "type": "uint256"
        }
      ],
      "stateMutability": "pure",
      "type": "function"
    },
    {
      "inputs": [],
      "name": "getValues",
      "outputs": [
        {
          "internalType": "uint256",
          "name": "",
          "type": "uint256"
        }
      ],
      "stateMutability": "nonpayable",
      "type": "function"
    },
    {
      "inputs": [
        {
          "internalType": "uint256",
          "name": "value",
          "type": "uint256"
        }
      ],
      "name": "storeValue",
      "outputs": [],
      "stateMutability": "nonpayable",
      "type": "function"
    }
  ],
  "bytecode": "0x608060405234801561001057600080fd5b50610288806100206000396000f3fe608060405234801561001057600080fd5b506004361061004c5760003560e01c80630ff4c9161461005157806319eb4a90146100815780635e383d211461009f5780637221a26a146100cf575b600080fd5b61006b60048036038101906100669190610198565b6100eb565b60405161007891906101d4565b60405180910390f35b610089610101565b60405161009691906101d4565b60405180910390f35b6100b960048036038101906100b49190610198565b61010d565b6040516100c691906101d4565b60405180910390f35b6100e960048036038101906100e49190610198565b610131565b005b60006096826100fa919061021e565b9050919050565b60008080549050905090565b6000818154811061011d57600080fd5b906000526020600020016000915090505481565b600081908060018154018082558091505060019003906000526020600020016000909190919091505550565b600080fd5b6000819050919050565b61017581610162565b811461018057600080fd5b50565b6000813590506101928161016c565b92915050565b6000602082840312156101ae576101ad61015d565b5b60006101bc84828501610183565b91505092915050565b6101ce81610162565b82525050565b60006020820190506101e960008301846101c5565b92915050565b7f4e487b7100000000000000000000000000000000000000000000000000000000600052601160045260246000fd5b600061022982610162565b915061023483610162565b925082820190508082111561024c5761024b6101ef565b5b9291505056fea2646970667358221220aecd27e1eb24c448ada44655f5ac0608c24584c0486d3d3f6bbcc161d030ef8164736f6c63430008100033",
  "immutableReferences": {},
  "source": "// SPDX-License-Identifier: GPL-3.0\n\npragma solidity >=0.8.0 <0.9.0;\n\ncontract Callee {\n    uint [] public values;\n\n    function getValue(uint initialValue) public pure returns (uint) {\n        return initialValue + 150;\n    }\n\n    function getValues() public returns (uint) {\n        return values.length;\n    }\n\n    function storeValue(uint value) public {\n        values.push(value);\n    }\n}\n\n",
  "sourcePath": "/Users/lap02139/Documents/Work3/solidty/contracts/Callee.sol",
  "compiler": {
    "name": "solc",
    "version": "0.8.16+commit.07a7930e.Emscripten.clang"
  },
  "schemaVersion": "3.4.9",
  "updatedAt": "2022-09-20T01:36:34.410Z",
  "devdoc": {
    "kind": "dev",
    "methods": {},
    "version": 1
  },
  "userdoc": {
    "kind": "user",
    "methods": {},
    "version": 1
  }
}