{
  "contractName": "NestingMap",
  "abi": [
    {
      "inputs": [
        {
          "internalType": "address",
          "name": "",
          "type": "address"
        },
        {
          "internalType": "uint256",
          "name": "",
          "type": "uint256"
        }
      ],
      "name": "nested",
      "outputs": [
        {
          "internalType": "bool",
          "name": "",
          "type": "bool"
        }
      ],
      "stateMutability": "view",
      "type": "function"
    },
    {
      "inputs": [
        {
          "internalType": "address",
          "name": "_addr1",
          "type": "address"
        },
        {
          "internalType": "uint256",
          "name": "_i",
          "type": "uint256"
        }
      ],
      "name": "get",
      "outputs": [
        {
          "internalType": "bool",
          "name": "",
          "type": "bool"
        }
      ],
      "stateMutability": "view",
      "type": "function"
    },
    {
      "inputs": [
        {
          "internalType": "address",
          "name": "_addr1",
          "type": "address"
        },
        {
          "internalType": "uint256",
          "name": "_i",
          "type": "uint256"
        },
        {
          "internalType": "bool",
          "name": "_boo",
          "type": "bool"
        }
      ],
      "name": "set",
      "outputs": [],
      "stateMutability": "nonpayable",
      "type": "function"
    },
    {
      "inputs": [
        {
          "internalType": "address",
          "name": "_addr1",
          "type": "address"
        },
        {
          "internalType": "uint256",
          "name": "_i",
          "type": "uint256"
        }
      ],
      "name": "remove",
      "outputs": [],
      "stateMutability": "nonpayable",
      "type": "function"
    }
  ],
  "bytecode": "0x608060405234801561001057600080fd5b50610412806100206000396000f3fe608060405234801561001057600080fd5b506004361061004c5760003560e01c80630b1391941461005157806314bd0a7b1461006d578063abe7f1ab1461009d578063b464631b146100b9575b600080fd5b61006b6004803603810190610066919061031f565b6100e9565b005b61008760048036038101906100829190610372565b610155565b60405161009491906103c1565b60405180910390f35b6100b760048036038101906100b29190610372565b610184565b005b6100d360048036038101906100ce9190610372565b6101e7565b6040516100e091906103c1565b60405180910390f35b806000808573ffffffffffffffffffffffffffffffffffffffff1673ffffffffffffffffffffffffffffffffffffffff168152602001908152602001600020600084815260200190815260200160002060006101000a81548160ff021916908315150217905550505050565b60006020528160005260406000206020528060005260406000206000915091509054906101000a900460ff1681565b6000808373ffffffffffffffffffffffffffffffffffffffff1673ffffffffffffffffffffffffffffffffffffffff168152602001908152602001600020600082815260200190815260200160002060006101000a81549060ff02191690555050565b60008060008473ffffffffffffffffffffffffffffffffffffffff1673ffffffffffffffffffffffffffffffffffffffff168152602001908152602001600020600083815260200190815260200160002060009054906101000a900460ff16905092915050565b600080fd5b600073ffffffffffffffffffffffffffffffffffffffff82169050919050565b600061027e82610253565b9050919050565b61028e81610273565b811461029957600080fd5b50565b6000813590506102ab81610285565b92915050565b6000819050919050565b6102c4816102b1565b81146102cf57600080fd5b50565b6000813590506102e1816102bb565b92915050565b60008115159050919050565b6102fc816102e7565b811461030757600080fd5b50565b600081359050610319816102f3565b92915050565b6000806000606084860312156103385761033761024e565b5b60006103468682870161029c565b9350506020610357868287016102d2565b92505060406103688682870161030a565b9150509250925092565b600080604083850312156103895761038861024e565b5b60006103978582860161029c565b92505060206103a8858286016102d2565b9150509250929050565b6103bb816102e7565b82525050565b60006020820190506103d660008301846103b2565b9291505056fea26469706673582212209fc92158201f6532035987aaa7bbe76fc5a29df239b1927dfeb8a83b17da9a5364736f6c63430008100033",
  "immutableReferences": {},
  "source": "// SPDX-License-Identifier: MIT\npragma solidity ^0.8.0;\n\ncontract Mapping {\n    mapping(address => uint) public myMap;\n\n    function get(address _addr) public view returns (uint) {\n        return myMap[_addr];\n    }\n\n    function set(address _addr, uint _i) public {\n        myMap[_addr] = _i;\n    }\n\n    function remove(address _addr) public {\n        delete myMap[_addr];\n    }\n\n}\n\ncontract NestingMap {\n    mapping(address => mapping(uint => bool)) public nested;\n\n    function get(address _addr1, uint _i) public view returns (bool) {\n        return nested[_addr1][_i];\n    }\n\n    function set(\n        address _addr1,\n        uint _i,\n        bool _boo\n    ) public {\n        nested[_addr1][_i] = _boo;\n    }\n\n    function remove(address _addr1, uint _i) public {\n        delete nested[_addr1][_i];\n    }\n}\n",
  "sourcePath": "/Users/lap02139/Documents/Work3/solidty/contracts/Mapping.sol",
  "compiler": {
    "name": "solc",
    "version": "0.8.16+commit.07a7930e.Emscripten.clang"
  },
  "schemaVersion": "3.4.9",
  "updatedAt": "2022-09-20T01:34:20.888Z",
  "devdoc": {
    "kind": "dev",
    "methods": {},
    "version": 1
  },
  "userdoc": {
    "kind": "user",
    "methods": {},
    "version": 1
  }
}