{
  "contractName": "Todos",
  "abi": [
    {
      "inputs": [
        {
          "internalType": "uint256",
          "name": "",
          "type": "uint256"
        }
      ],
      "name": "todos",
      "outputs": [
        {
          "internalType": "string",
          "name": "text",
          "type": "string"
        },
        {
          "internalType": "bool",
          "name": "completed",
          "type": "bool"
        }
      ],
      "stateMutability": "view",
      "type": "function"
    },
    {
      "inputs": [
        {
          "internalType": "string",
          "name": "_text",
          "type": "string"
        }
      ],
      "name": "create",
      "outputs": [],
      "stateMutability": "nonpayable",
      "type": "function"
    },
    {
      "inputs": [
        {
          "internalType": "uint256",
          "name": "_index",
          "type": "uint256"
        }
      ],
      "name": "get",
      "outputs": [
        {
          "internalType": "string",
          "name": "text",
          "type": "string"
        },
        {
          "internalType": "bool",
          "name": "completed",
          "type": "bool"
        }
      ],
      "stateMutability": "view",
      "type": "function"
    },
    {
      "inputs": [
        {
          "internalType": "uint256",
          "name": "_index",
          "type": "uint256"
        },
        {
          "internalType": "string",
          "name": "_text",
          "type": "string"
        }
      ],
      "name": "updateText",
      "outputs": [],
      "stateMutability": "nonpayable",
      "type": "function"
    },
    {
      "inputs": [
        {
          "internalType": "uint256",
          "name": "_index",
          "type": "uint256"
        }
      ],
      "name": "toggleCompleted",
      "outputs": [],
      "stateMutability": "nonpayable",
      "type": "function"
    }
  ],
  "bytecode": "0x608060405234801561001057600080fd5b50610c45806100206000396000f3fe608060405234801561001057600080fd5b50600436106100575760003560e01c8063455f50241461005c5780639507d39a14610078578063b6a46b3b146100a9578063bc8bc2b4146100c5578063cd111614146100f6575b600080fd5b610076600480360381019061007191906105de565b610112565b005b610092600480360381019061008d91906105de565b610169565b6040516100a09291906106b6565b60405180910390f35b6100c360048036038101906100be919061074b565b61023e565b005b6100df60048036038101906100da91906105de565b61047a565b6040516100ed9291906106b6565b60405180910390f35b610110600480360381019061010b9190610798565b610543565b005b6000808281548110610127576101266107f8565b5b906000526020600020906002020190508060010160009054906101000a900460ff16158160010160006101000a81548160ff0219169083151502179055505050565b606060008060008481548110610182576101816107f8565b5b90600052602060002090600202019050806000018160010160009054906101000a900460ff168180546101b490610856565b80601f01602080910402602001604051908101604052809291908181526020018280546101e090610856565b801561022d5780601f106102025761010080835404028352916020019161022d565b820191906000526020600020905b81548152906001019060200180831161021057829003601f168201915b505050505091509250925050915091565b6000604051806040016040528084848080601f016020809104026020016040519081016040528093929190818152602001838380828437600081840152601f19601f82011690508083019250505050505050815260200160001515815250908060018154018082558091505060019003906000526020600020906002020160009091909190915060008201518160000190816102da9190610a62565b5060208201518160010160006101000a81548160ff02191690831515021790555050506000604051806040016040528084848080601f016020809104026020016040519081016040528093929190818152602001838380828437600081840152601f19601f82011690508083019250505050505050815260200160001515815250908060018154018082558091505060019003906000526020600020906002020160009091909190915060008201518160000190816103999190610a62565b5060208201518160010160006101000a81548160ff02191690831515021790555050506103c4610582565b82828080601f016020809104026020016040519081016040528093929190818152602001838380828437600081840152601f19601f820116905080830192505050505050508160000181905250600081908060018154018082558091505060019003906000526020600020906002020160009091909190915060008201518160000190816104529190610a62565b5060208201518160010160006101000a81548160ff0219169083151502179055505050505050565b6000818154811061048a57600080fd5b90600052602060002090600202016000915090508060000180546104ad90610856565b80601f01602080910402602001604051908101604052809291908181526020018280546104d990610856565b80156105265780601f106104fb57610100808354040283529160200191610526565b820191906000526020600020905b81548152906001019060200180831161050957829003601f168201915b5050505050908060010160009054906101000a900460ff16905082565b6000808481548110610558576105576107f8565b5b90600052602060002090600202019050828282600001918261057b929190610b3f565b5050505050565b6040518060400160405280606081526020016000151581525090565b600080fd5b600080fd5b6000819050919050565b6105bb816105a8565b81146105c657600080fd5b50565b6000813590506105d8816105b2565b92915050565b6000602082840312156105f4576105f361059e565b5b6000610602848285016105c9565b91505092915050565b600081519050919050565b600082825260208201905092915050565b60005b8381101561064557808201518184015260208101905061062a565b60008484015250505050565b6000601f19601f8301169050919050565b600061066d8261060b565b6106778185610616565b9350610687818560208601610627565b61069081610651565b840191505092915050565b60008115159050919050565b6106b08161069b565b82525050565b600060408201905081810360008301526106d08185610662565b90506106df60208301846106a7565b9392505050565b600080fd5b600080fd5b600080fd5b60008083601f84011261070b5761070a6106e6565b5b8235905067ffffffffffffffff811115610728576107276106eb565b5b602083019150836001820283011115610744576107436106f0565b5b9250929050565b600080602083850312156107625761076161059e565b5b600083013567ffffffffffffffff8111156107805761077f6105a3565b5b61078c858286016106f5565b92509250509250929050565b6000806000604084860312156107b1576107b061059e565b5b60006107bf868287016105c9565b935050602084013567ffffffffffffffff8111156107e0576107df6105a3565b5b6107ec868287016106f5565b92509250509250925092565b7f4e487b7100000000000000000000000000000000000000000000000000000000600052603260045260246000fd5b7f4e487b7100000000000000000000000000000000000000000000000000000000600052602260045260246000fd5b6000600282049050600182168061086e57607f821691505b60208210810361088157610880610827565b5b50919050565b7f4e487b7100000000000000000000000000000000000000000000000000000000600052604160045260246000fd5b60008190508160005260206000209050919050565b60006020601f8301049050919050565b600082821b905092915050565b6000600883026109187fffffffffffffffffffffffffffffffffffffffffffffffffffffffffffffffff826108db565b61092286836108db565b95508019841693508086168417925050509392505050565b6000819050919050565b600061095f61095a610955846105a8565b61093a565b6105a8565b9050919050565b6000819050919050565b61097983610944565b61098d61098582610966565b8484546108e8565b825550505050565b600090565b6109a2610995565b6109ad818484610970565b505050565b5b818110156109d1576109c660008261099a565b6001810190506109b3565b5050565b601f821115610a16576109e7816108b6565b6109f0846108cb565b810160208510156109ff578190505b610a13610a0b856108cb565b8301826109b2565b50505b505050565b600082821c905092915050565b6000610a3960001984600802610a1b565b1980831691505092915050565b6000610a528383610a28565b9150826002028217905092915050565b610a6b8261060b565b67ffffffffffffffff811115610a8457610a83610887565b5b610a8e8254610856565b610a998282856109d5565b600060209050601f831160018114610acc5760008415610aba578287015190505b610ac48582610a46565b865550610b2c565b601f198416610ada866108b6565b60005b82811015610b0257848901518255600182019150602085019450602081019050610add565b86831015610b1f5784890151610b1b601f891682610a28565b8355505b6001600288020188555050505b505050505050565b600082905092915050565b610b498383610b34565b67ffffffffffffffff811115610b6257610b61610887565b5b610b6c8254610856565b610b778282856109d5565b6000601f831160018114610ba65760008415610b94578287013590505b610b9e8582610a46565b865550610c06565b601f198416610bb4866108b6565b60005b82811015610bdc57848901358255600182019150602085019450602081019050610bb7565b86831015610bf95784890135610bf5601f891682610a28565b8355505b6001600288020188555050505b5050505050505056fea264697066735822122065ab5db5cd83327862a241ce43429abda85265f1672bad872e4b3e8a7363e47464736f6c63430008100033",
  "immutableReferences": {},
  "source": "// SPDX-License-Identifier: MIT\npragma solidity ^0.8.0;\n\ncontract Todos {\n    struct Todo {\n        string text;\n        bool completed;\n    }\n\n    Todo[] public todos;\n\n    function create(string calldata _text) public {\n        todos.push(Todo(_text, false));\n\n        todos.push(Todo({text : _text, completed : false}));\n\n        Todo memory todo;\n        todo.text = _text;\n        todos.push(todo);\n    }\n\n    function get(uint _index) public view returns (string memory text, bool completed) {\n        Todo storage todo = todos[_index];\n        return (todo.text, todo.completed);\n    }\n\n    function updateText(uint _index, string calldata _text) public {\n        Todo storage todo = todos[_index];\n        todo.text = _text;\n    }\n\n    function toggleCompleted(uint _index) public {\n        Todo storage todo = todos[_index];\n        todo.completed = !todo.completed;\n    }\n}\n",
  "sourcePath": "/Users/lap02139/Documents/Work3/solidty/contracts/Todos.sol",
  "compiler": {
    "name": "solc",
    "version": "0.8.16+commit.07a7930e.Emscripten.clang"
  },
  "schemaVersion": "3.4.10",
  "updatedAt": "2022-09-20T02:28:12.059Z",
  "devdoc": {
    "kind": "dev",
    "methods": {},
    "version": 1
  },
  "userdoc": {
    "kind": "user",
    "methods": {},
    "version": 1
  }
}