{
  "contractName": "Variables",
  "abi": [
    {
      "inputs": [],
      "name": "num",
      "outputs": [
        {
          "internalType": "uint256",
          "name": "",
          "type": "uint256"
        }
      ],
      "stateMutability": "view",
      "type": "function"
    },
    {
      "inputs": [],
      "name": "text",
      "outputs": [
        {
          "internalType": "string",
          "name": "",
          "type": "string"
        }
      ],
      "stateMutability": "view",
      "type": "function"
    },
    {
      "inputs": [],
      "name": "doSomething",
      "outputs": [],
      "stateMutability": "nonpayable",
      "type": "function"
    }
  ],
  "bytecode": "0x60806040526040518060400160405280600581526020017f48656c6c6f0000000000000000000000000000000000000000000000000000008152506000908161004891906102b0565b50607b60015534801561005a57600080fd5b50610382565b600081519050919050565b7f4e487b7100000000000000000000000000000000000000000000000000000000600052604160045260246000fd5b7f4e487b7100000000000000000000000000000000000000000000000000000000600052602260045260246000fd5b600060028204905060018216806100e157607f821691505b6020821081036100f4576100f361009a565b5b50919050565b60008190508160005260206000209050919050565b60006020601f8301049050919050565b600082821b905092915050565b60006008830261015c7fffffffffffffffffffffffffffffffffffffffffffffffffffffffffffffffff8261011f565b610166868361011f565b95508019841693508086168417925050509392505050565b6000819050919050565b6000819050919050565b60006101ad6101a86101a38461017e565b610188565b61017e565b9050919050565b6000819050919050565b6101c783610192565b6101db6101d3826101b4565b84845461012c565b825550505050565b600090565b6101f06101e3565b6101fb8184846101be565b505050565b5b8181101561021f576102146000826101e8565b600181019050610201565b5050565b601f82111561026457610235816100fa565b61023e8461010f565b8101602085101561024d578190505b6102616102598561010f565b830182610200565b50505b505050565b600082821c905092915050565b600061028760001984600802610269565b1980831691505092915050565b60006102a08383610276565b9150826002028217905092915050565b6102b982610060565b67ffffffffffffffff8111156102d2576102d161006b565b5b6102dc82546100c9565b6102e7828285610223565b600060209050601f83116001811461031a5760008415610308578287015190505b6103128582610294565b86555061037a565b601f198416610328866100fa565b60005b828110156103505784890151825560018201915060208501945060208101905061032b565b8683101561036d5784890151610369601f891682610276565b8355505b6001600288020188555050505b505050505050565b6102b2806103916000396000f3fe608060405234801561001057600080fd5b50600436106100415760003560e01c80631f1bd692146100465780634e70b1dc146100645780638269267914610082575b600080fd5b61004e61008c565b60405161005b91906101c6565b60405180910390f35b61006c61011a565b6040516100799190610201565b60405180910390f35b61008a610120565b005b600080546100999061024b565b80601f01602080910402602001604051908101604052809291908181526020018280546100c59061024b565b80156101125780601f106100e757610100808354040283529160200191610112565b820191906000526020600020905b8154815290600101906020018083116100f557829003601f168201915b505050505081565b60015481565b60006101c8905060004290506000339050505050565b600081519050919050565b600082825260208201905092915050565b60005b83811015610170578082015181840152602081019050610155565b60008484015250505050565b6000601f19601f8301169050919050565b600061019882610136565b6101a28185610141565b93506101b2818560208601610152565b6101bb8161017c565b840191505092915050565b600060208201905081810360008301526101e0818461018d565b905092915050565b6000819050919050565b6101fb816101e8565b82525050565b600060208201905061021660008301846101f2565b92915050565b7f4e487b7100000000000000000000000000000000000000000000000000000000600052602260045260246000fd5b6000600282049050600182168061026357607f821691505b6020821081036102765761027561021c565b5b5091905056fea2646970667358221220c8bee6f1f22c457e1b0eb9bda63d81aa7edaa14ba29c725a5275b90c2dd847e364736f6c63430008100033",
  "immutableReferences": {},
  "source": "// SPDX-License-Identifier: MIT\npragma solidity ^0.8.0;\n\ncontract Variables {\n    string public  text = \"Hello\";\n    uint  public num = 123;\n\n    function doSomething() public {\n        uint i = 456;\n        uint timestamp = block.timestamp;\n        address sender = msg.sender;\n    }\n}\n",
  "sourcePath": "/Users/lap02139/Documents/Work3/solidty/contracts/Variables.sol",
  "compiler": {
    "name": "solc",
    "version": "0.8.16+commit.07a7930e.Emscripten.clang"
  },
  "schemaVersion": "3.4.9",
  "updatedAt": "2022-09-20T01:34:20.894Z",
  "devdoc": {
    "kind": "dev",
    "methods": {},
    "version": 1
  },
  "userdoc": {
    "kind": "user",
    "methods": {},
    "version": 1
  }
}